{
  "address": "0x8954397e87A891f8b23c8baA8C47f726AB00b2B1",
  "abi": [
    {
      "inputs": [],
      "stateMutability": "nonpayable",
      "type": "constructor"
    },
    {
      "anonymous": false,
      "inputs": [
        {
          "indexed": true,
          "internalType": "address",
          "name": "owner",
          "type": "address"
        },
        {
          "indexed": true,
          "internalType": "address",
          "name": "approved",
          "type": "address"
        },
        {
          "indexed": true,
          "internalType": "uint256",
          "name": "tokenId",
          "type": "uint256"
        }
      ],
      "name": "Approval",
      "type": "event"
    },
    {
      "anonymous": false,
      "inputs": [
        {
          "indexed": true,
          "internalType": "address",
          "name": "owner",
          "type": "address"
        },
        {
          "indexed": true,
          "internalType": "address",
          "name": "operator",
          "type": "address"
        },
        {
          "indexed": false,
          "internalType": "bool",
          "name": "approved",
          "type": "bool"
        }
      ],
      "name": "ApprovalForAll",
      "type": "event"
    },
    {
      "anonymous": false,
      "inputs": [
        {
          "indexed": true,
          "internalType": "address",
          "name": "previousOwner",
          "type": "address"
        },
        {
          "indexed": true,
          "internalType": "address",
          "name": "newOwner",
          "type": "address"
        }
      ],
      "name": "OwnershipTransferred",
      "type": "event"
    },
    {
      "anonymous": false,
      "inputs": [
        {
          "indexed": true,
          "internalType": "address",
          "name": "from",
          "type": "address"
        },
        {
          "indexed": true,
          "internalType": "address",
          "name": "to",
          "type": "address"
        },
        {
          "indexed": true,
          "internalType": "uint256",
          "name": "tokenId",
          "type": "uint256"
        }
      ],
      "name": "Transfer",
      "type": "event"
    },
    {
      "inputs": [
        {
          "internalType": "address",
          "name": "to",
          "type": "address"
        },
        {
          "internalType": "uint256",
          "name": "tokenId",
          "type": "uint256"
        }
      ],
      "name": "approve",
      "outputs": [],
      "stateMutability": "nonpayable",
      "type": "function"
    },
    {
      "inputs": [
        {
          "internalType": "address",
          "name": "owner",
          "type": "address"
        }
      ],
      "name": "balanceOf",
      "outputs": [
        {
          "internalType": "uint256",
          "name": "",
          "type": "uint256"
        }
      ],
      "stateMutability": "view",
      "type": "function"
    },
    {
      "inputs": [],
      "name": "baseURI",
      "outputs": [
        {
          "internalType": "string",
          "name": "",
          "type": "string"
        }
      ],
      "stateMutability": "view",
      "type": "function"
    },
    {
      "inputs": [
        {
          "internalType": "uint256",
          "name": "tokenId",
          "type": "uint256"
        }
      ],
      "name": "getApproved",
      "outputs": [
        {
          "internalType": "address",
          "name": "",
          "type": "address"
        }
      ],
      "stateMutability": "view",
      "type": "function"
    },
    {
      "inputs": [
        {
          "internalType": "address",
          "name": "owner",
          "type": "address"
        },
        {
          "internalType": "address",
          "name": "operator",
          "type": "address"
        }
      ],
      "name": "isApprovedForAll",
      "outputs": [
        {
          "internalType": "bool",
          "name": "",
          "type": "bool"
        }
      ],
      "stateMutability": "view",
      "type": "function"
    },
    {
      "inputs": [
        {
          "internalType": "address",
          "name": "to",
          "type": "address"
        },
        {
          "internalType": "uint256",
          "name": "tokenId",
          "type": "uint256"
        }
      ],
      "name": "mint",
      "outputs": [],
      "stateMutability": "nonpayable",
      "type": "function"
    },
    {
      "inputs": [],
      "name": "name",
      "outputs": [
        {
          "internalType": "string",
          "name": "",
          "type": "string"
        }
      ],
      "stateMutability": "view",
      "type": "function"
    },
    {
      "inputs": [],
      "name": "owner",
      "outputs": [
        {
          "internalType": "address",
          "name": "",
          "type": "address"
        }
      ],
      "stateMutability": "view",
      "type": "function"
    },
    {
      "inputs": [
        {
          "internalType": "uint256",
          "name": "tokenId",
          "type": "uint256"
        }
      ],
      "name": "ownerOf",
      "outputs": [
        {
          "internalType": "address",
          "name": "",
          "type": "address"
        }
      ],
      "stateMutability": "view",
      "type": "function"
    },
    {
      "inputs": [],
      "name": "renounceOwnership",
      "outputs": [],
      "stateMutability": "nonpayable",
      "type": "function"
    },
    {
      "inputs": [
        {
          "internalType": "address",
          "name": "from",
          "type": "address"
        },
        {
          "internalType": "address",
          "name": "to",
          "type": "address"
        },
        {
          "internalType": "uint256",
          "name": "tokenId",
          "type": "uint256"
        }
      ],
      "name": "safeTransferFrom",
      "outputs": [],
      "stateMutability": "nonpayable",
      "type": "function"
    },
    {
      "inputs": [
        {
          "internalType": "address",
          "name": "from",
          "type": "address"
        },
        {
          "internalType": "address",
          "name": "to",
          "type": "address"
        },
        {
          "internalType": "uint256",
          "name": "tokenId",
          "type": "uint256"
        },
        {
          "internalType": "bytes",
          "name": "_data",
          "type": "bytes"
        }
      ],
      "name": "safeTransferFrom",
      "outputs": [],
      "stateMutability": "nonpayable",
      "type": "function"
    },
    {
      "inputs": [
        {
          "internalType": "address",
          "name": "operator",
          "type": "address"
        },
        {
          "internalType": "bool",
          "name": "approved",
          "type": "bool"
        }
      ],
      "name": "setApprovalForAll",
      "outputs": [],
      "stateMutability": "nonpayable",
      "type": "function"
    },
    {
      "inputs": [
        {
          "internalType": "string",
          "name": "_bURI",
          "type": "string"
        }
      ],
      "name": "setBaseURI",
      "outputs": [],
      "stateMutability": "nonpayable",
      "type": "function"
    },
    {
      "inputs": [
        {
          "internalType": "bytes4",
          "name": "interfaceId",
          "type": "bytes4"
        }
      ],
      "name": "supportsInterface",
      "outputs": [
        {
          "internalType": "bool",
          "name": "",
          "type": "bool"
        }
      ],
      "stateMutability": "view",
      "type": "function"
    },
    {
      "inputs": [],
      "name": "symbol",
      "outputs": [
        {
          "internalType": "string",
          "name": "",
          "type": "string"
        }
      ],
      "stateMutability": "view",
      "type": "function"
    },
    {
      "inputs": [
        {
          "internalType": "uint256",
          "name": "index",
          "type": "uint256"
        }
      ],
      "name": "tokenByIndex",
      "outputs": [
        {
          "internalType": "uint256",
          "name": "",
          "type": "uint256"
        }
      ],
      "stateMutability": "view",
      "type": "function"
    },
    {
      "inputs": [
        {
          "internalType": "address",
          "name": "owner",
          "type": "address"
        },
        {
          "internalType": "uint256",
          "name": "index",
          "type": "uint256"
        }
      ],
      "name": "tokenOfOwnerByIndex",
      "outputs": [
        {
          "internalType": "uint256",
          "name": "",
          "type": "uint256"
        }
      ],
      "stateMutability": "view",
      "type": "function"
    },
    {
      "inputs": [
        {
          "internalType": "uint256",
          "name": "_tokenId",
          "type": "uint256"
        }
      ],
      "name": "tokenURI",
      "outputs": [
        {
          "internalType": "string",
          "name": "",
          "type": "string"
        }
      ],
      "stateMutability": "view",
      "type": "function"
    },
    {
      "inputs": [],
      "name": "totalSupply",
      "outputs": [
        {
          "internalType": "uint256",
          "name": "",
          "type": "uint256"
        }
      ],
      "stateMutability": "view",
      "type": "function"
    },
    {
      "inputs": [
        {
          "internalType": "address",
          "name": "from",
          "type": "address"
        },
        {
          "internalType": "address",
          "name": "to",
          "type": "address"
        },
        {
          "internalType": "uint256",
          "name": "tokenId",
          "type": "uint256"
        }
      ],
      "name": "transferFrom",
      "outputs": [],
      "stateMutability": "nonpayable",
      "type": "function"
    },
    {
      "inputs": [
        {
          "internalType": "address",
          "name": "newOwner",
          "type": "address"
        }
      ],
      "name": "transferOwnership",
      "outputs": [],
      "stateMutability": "nonpayable",
      "type": "function"
    },
    {
      "inputs": [],
      "name": "withdraw",
      "outputs": [],
      "stateMutability": "nonpayable",
      "type": "function"
    },
    {
      "inputs": [
        {
          "internalType": "contract IERC20",
          "name": "_token",
          "type": "address"
        }
      ],
      "name": "withdrawTokens",
      "outputs": [],
      "stateMutability": "nonpayable",
      "type": "function"
    }
  ],
  "transactionHash": "0xf28a9e4d10dc492a2c34ae9bbfc1e5bca9b09edef0cfcc763fbbf5669023886c",
  "args": [],
  "numDeployments": 1,
  "solcInputHash": "4552433995712139bf344f6d6cdeabaf",
  "bytecode": "0x60806040523480156200001157600080fd5b50604080518082018252601981527f4f7074696d69736d20436f6e7472696275746f72204e4654730000000000000060208083019182528351808501909452600684526513d410d3919560d21b908401528151919291620000759160009162000104565b5080516200008b90600190602084019062000104565b505050620000a8620000a2620000ae60201b60201c565b620000b2565b620001e7565b3390565b600a80546001600160a01b038381166001600160a01b0319831681179093556040519116919082907f8be0079c531659141344cd1fd0a4f28419497f9722a3daafe3b4186f6b6457e090600090a35050565b8280546200011290620001aa565b90600052602060002090601f01602090048101928262000136576000855562000181565b82601f106200015157805160ff191683800117855562000181565b8280016001018555821562000181579182015b828111156200018157825182559160200191906001019062000164565b506200018f92915062000193565b5090565b5b808211156200018f576000815560010162000194565b600181811c90821680620001bf57607f821691505b60208210811415620001e157634e487b7160e01b600052602260045260246000fd5b50919050565b611e6680620001f76000396000f3fe608060405234801561001057600080fd5b50600436106101985760003560e01c806355f804b3116100e357806395d89b411161008c578063c87b56dd11610066578063c87b56dd1461032e578063e985e9c514610341578063f2fde38b1461037d57600080fd5b806395d89b4114610300578063a22cb46514610308578063b88d4fde1461031b57600080fd5b806370a08231116100bd57806370a08231146102d4578063715018a6146102e75780638da5cb5b146102ef57600080fd5b806355f804b3146102a65780636352211e146102b95780636c0360eb146102cc57600080fd5b80632f745c591161014557806342842e0e1161011f57806342842e0e1461026d57806349df728c146102805780634f6ccce71461029357600080fd5b80632f745c591461023f5780633ccfd60b1461025257806340c10f191461025a57600080fd5b8063095ea7b311610176578063095ea7b31461020557806318160ddd1461021a57806323b872dd1461022c57600080fd5b806301ffc9a71461019d57806306fdde03146101c5578063081812fc146101da575b600080fd5b6101b06101ab366004611889565b610390565b60405190151581526020015b60405180910390f35b6101cd6103bb565b6040516101bc9190611905565b6101ed6101e8366004611918565b61044d565b6040516001600160a01b0390911681526020016101bc565b610218610213366004611946565b6104e7565b005b6008545b6040519081526020016101bc565b61021861023a366004611972565b6105fd565b61021e61024d366004611946565b61062e565b6102186106c4565b610218610268366004611946565b6107a7565b61021861027b366004611972565b61084e565b61021861028e3660046119b3565b610869565b61021e6102a1366004611918565b610a02565b6102186102b4366004611a5c565b610a95565b6101ed6102c7366004611918565b610af0565b6101cd610b67565b61021e6102e23660046119b3565b610bf5565b610218610c7c565b600a546001600160a01b03166101ed565b6101cd610cd0565b610218610316366004611ab3565b610cdf565b610218610329366004611aec565b610cea565b6101cd61033c366004611918565b610d22565b6101b061034f366004611b6c565b6001600160a01b03918216600090815260056020908152604080832093909416825291909152205460ff1690565b61021861038b3660046119b3565b610dfd565b60006001600160e01b0319821663780e9d6360e01b14806103b557506103b582610eb3565b92915050565b6060600080546103ca90611b9a565b80601f01602080910402602001604051908101604052809291908181526020018280546103f690611b9a565b80156104435780601f1061041857610100808354040283529160200191610443565b820191906000526020600020905b81548152906001019060200180831161042657829003601f168201915b5050505050905090565b6000818152600260205260408120546001600160a01b03166104cb5760405162461bcd60e51b815260206004820152602c60248201527f4552433732313a20617070726f76656420717565727920666f72206e6f6e657860448201526b34b9ba32b73a103a37b5b2b760a11b60648201526084015b60405180910390fd5b506000908152600460205260409020546001600160a01b031690565b60006104f282610af0565b9050806001600160a01b0316836001600160a01b031614156105605760405162461bcd60e51b815260206004820152602160248201527f4552433732313a20617070726f76616c20746f2063757272656e74206f776e656044820152603960f91b60648201526084016104c2565b336001600160a01b038216148061057c575061057c813361034f565b6105ee5760405162461bcd60e51b815260206004820152603860248201527f4552433732313a20617070726f76652063616c6c6572206973206e6f74206f7760448201527f6e6572206e6f7220617070726f76656420666f7220616c6c000000000000000060648201526084016104c2565b6105f88383610f03565b505050565b6106073382610f71565b6106235760405162461bcd60e51b81526004016104c290611bd5565b6105f8838383611068565b600061063983610bf5565b821061069b5760405162461bcd60e51b815260206004820152602b60248201527f455243373231456e756d657261626c653a206f776e657220696e646578206f7560448201526a74206f6620626f756e647360a81b60648201526084016104c2565b506001600160a01b03919091166000908152600660209081526040808320938352929052205490565b600a546001600160a01b0316331461070c5760405162461bcd60e51b81526020600482018190526024820152600080516020611e1183398151915260448201526064016104c2565b604051600090339047908381818185875af1925050503d806000811461074e576040519150601f19603f3d011682016040523d82523d6000602084013e610753565b606091505b50509050806107a45760405162461bcd60e51b815260206004820152601760248201527f4f50434e46543a206574682073656e64206661696c656400000000000000000060448201526064016104c2565b50565b600a546001600160a01b031633146107ef5760405162461bcd60e51b81526020600482018190526024820152600080516020611e1183398151915260448201526064016104c2565b60085481146108405760405162461bcd60e51b815260206004820152601e60248201527f4f50434e46543a206d696e74696e672077726f6e6720746f6b656e206964000060448201526064016104c2565b61084a82826110d6565b5050565b6105f883838360405180602001604052806000815250610cea565b600a546001600160a01b031633146108b15760405162461bcd60e51b81526020600482018190526024820152600080516020611e1183398151915260448201526064016104c2565b6040516370a0823160e01b81523060048201526000906001600160a01b0383169063a9059cbb90339083906370a082319060240160206040518083038186803b1580156108fd57600080fd5b505afa158015610911573d6000803e3d6000fd5b505050506040513d601f19601f820116820180604052508101906109359190611c26565b6040516001600160e01b031960e085901b1681526001600160a01b0390921660048301526024820152604401602060405180830381600087803b15801561097b57600080fd5b505af115801561098f573d6000803e3d6000fd5b505050506040513d601f19601f820116820180604052508101906109b39190611c3f565b90508061084a5760405162461bcd60e51b815260206004820152601960248201527f4f50434e46543a20746f6b656e2073656e64206661696c65640000000000000060448201526064016104c2565b6000610a0d60085490565b8210610a705760405162461bcd60e51b815260206004820152602c60248201527f455243373231456e756d657261626c653a20676c6f62616c20696e646578206f60448201526b7574206f6620626f756e647360a01b60648201526084016104c2565b60088281548110610a8357610a83611c5c565b90600052602060002001549050919050565b600a546001600160a01b03163314610add5760405162461bcd60e51b81526020600482018190526024820152600080516020611e1183398151915260448201526064016104c2565b805161084a90600b9060208401906117da565b6000818152600260205260408120546001600160a01b0316806103b55760405162461bcd60e51b815260206004820152602960248201527f4552433732313a206f776e657220717565727920666f72206e6f6e657869737460448201526832b73a103a37b5b2b760b91b60648201526084016104c2565b600b8054610b7490611b9a565b80601f0160208091040260200160405190810160405280929190818152602001828054610ba090611b9a565b8015610bed5780601f10610bc257610100808354040283529160200191610bed565b820191906000526020600020905b815481529060010190602001808311610bd057829003601f168201915b505050505081565b60006001600160a01b038216610c605760405162461bcd60e51b815260206004820152602a60248201527f4552433732313a2062616c616e636520717565727920666f7220746865207a65604482015269726f206164647265737360b01b60648201526084016104c2565b506001600160a01b031660009081526003602052604090205490565b600a546001600160a01b03163314610cc45760405162461bcd60e51b81526020600482018190526024820152600080516020611e1183398151915260448201526064016104c2565b610cce6000611224565b565b6060600180546103ca90611b9a565b61084a338383611276565b610cf43383610f71565b610d105760405162461bcd60e51b81526004016104c290611bd5565b610d1c84848484611345565b50505050565b6000818152600260205260409020546060906001600160a01b0316610da15760405162461bcd60e51b815260206004820152602f60248201527f4552433732314d657461646174613a2055524920717565727920666f72206e6f60448201526e3732bc34b9ba32b73a103a37b5b2b760891b60648201526084016104c2565b6000610dab611378565b5111610dc657604051806020016040528060008152506103b5565b610dce611378565b610dd783611387565b604051602001610de8929190611c72565b60405160208183030381529060405292915050565b600a546001600160a01b03163314610e455760405162461bcd60e51b81526020600482018190526024820152600080516020611e1183398151915260448201526064016104c2565b6001600160a01b038116610eaa5760405162461bcd60e51b815260206004820152602660248201527f4f776e61626c653a206e6577206f776e657220697320746865207a65726f206160448201526564647265737360d01b60648201526084016104c2565b6107a481611224565b60006001600160e01b031982166380ac58cd60e01b1480610ee457506001600160e01b03198216635b5e139f60e01b145b806103b557506301ffc9a760e01b6001600160e01b03198316146103b5565b600081815260046020526040902080546001600160a01b0319166001600160a01b0384169081179091558190610f3882610af0565b6001600160a01b03167f8c5be1e5ebec7d5bd14f71427d1e84f3dd0314c0f7b2291e5b200ac8c7c3b92560405160405180910390a45050565b6000818152600260205260408120546001600160a01b0316610fea5760405162461bcd60e51b815260206004820152602c60248201527f4552433732313a206f70657261746f7220717565727920666f72206e6f6e657860448201526b34b9ba32b73a103a37b5b2b760a11b60648201526084016104c2565b6000610ff583610af0565b9050806001600160a01b0316846001600160a01b031614806110305750836001600160a01b03166110258461044d565b6001600160a01b0316145b8061106057506001600160a01b0380821660009081526005602090815260408083209388168352929052205460ff165b949350505050565b60405162461bcd60e51b815260206004820152603760248201527f4f50434e46543a207468697320697320796f7572207370656369616c206e667460448201527f2120796f752063616e2774207472616e7366657220697400000000000000000060648201526084016104c2565b6001600160a01b03821661112c5760405162461bcd60e51b815260206004820181905260248201527f4552433732313a206d696e7420746f20746865207a65726f206164647265737360448201526064016104c2565b6000818152600260205260409020546001600160a01b0316156111915760405162461bcd60e51b815260206004820152601c60248201527f4552433732313a20746f6b656e20616c7265616479206d696e7465640000000060448201526064016104c2565b61119d60008383611485565b6001600160a01b03821660009081526003602052604081208054600192906111c6908490611cc7565b909155505060008181526002602052604080822080546001600160a01b0319166001600160a01b03861690811790915590518392907fddf252ad1be2c89b69c2b068fc378daa952ba7f163c4a11628f55a4df523b3ef908290a45050565b600a80546001600160a01b038381166001600160a01b0319831681179093556040519116919082907f8be0079c531659141344cd1fd0a4f28419497f9722a3daafe3b4186f6b6457e090600090a35050565b816001600160a01b0316836001600160a01b031614156112d85760405162461bcd60e51b815260206004820152601960248201527f4552433732313a20617070726f766520746f2063616c6c65720000000000000060448201526064016104c2565b6001600160a01b03838116600081815260056020908152604080832094871680845294825291829020805460ff191686151590811790915591519182527f17307eab39ab6107e8899845ad3d59bd9653f200f220920489ca2b5937696c31910160405180910390a3505050565b611350848484611068565b61135c8484848461153d565b610d1c5760405162461bcd60e51b81526004016104c290611cdf565b6060600b80546103ca90611b9a565b6060816113ab5750506040805180820190915260018152600360fc1b602082015290565b8160005b81156113d557806113bf81611d31565b91506113ce9050600a83611d62565b91506113af565b60008167ffffffffffffffff8111156113f0576113f06119d0565b6040519080825280601f01601f19166020018201604052801561141a576020820181803683370190505b5090505b84156110605761142f600183611d76565b915061143c600a86611d8d565b611447906030611cc7565b60f81b81838151811061145c5761145c611c5c565b60200101906001600160f81b031916908160001a90535061147e600a86611d62565b945061141e565b6001600160a01b0383166114e0576114db81600880546000838152600960205260408120829055600182018355919091527ff3f7a9fe364faab93b216da50a3214154f22a0a2b415b23a84c8169e8b636ee30155565b611503565b816001600160a01b0316836001600160a01b03161461150357611503838261164a565b6001600160a01b03821661151a576105f8816116e7565b826001600160a01b0316826001600160a01b0316146105f8576105f88282611796565b60006001600160a01b0384163b1561163f57604051630a85bd0160e11b81526001600160a01b0385169063150b7a0290611581903390899088908890600401611da1565b602060405180830381600087803b15801561159b57600080fd5b505af19250505080156115cb575060408051601f3d908101601f191682019092526115c891810190611ddd565b60015b611625573d8080156115f9576040519150601f19603f3d011682016040523d82523d6000602084013e6115fe565b606091505b50805161161d5760405162461bcd60e51b81526004016104c290611cdf565b805181602001fd5b6001600160e01b031916630a85bd0160e11b149050611060565b506001949350505050565b6000600161165784610bf5565b6116619190611d76565b6000838152600760205260409020549091508082146116b4576001600160a01b03841660009081526006602090815260408083208584528252808320548484528184208190558352600790915290208190555b5060009182526007602090815260408084208490556001600160a01b039094168352600681528383209183525290812055565b6008546000906116f990600190611d76565b6000838152600960205260408120546008805493945090928490811061172157611721611c5c565b90600052602060002001549050806008838154811061174257611742611c5c565b600091825260208083209091019290925582815260099091526040808220849055858252812055600880548061177a5761177a611dfa565b6001900381819060005260206000200160009055905550505050565b60006117a183610bf5565b6001600160a01b039093166000908152600660209081526040808320868452825280832085905593825260079052919091209190915550565b8280546117e690611b9a565b90600052602060002090601f016020900481019282611808576000855561184e565b82601f1061182157805160ff191683800117855561184e565b8280016001018555821561184e579182015b8281111561184e578251825591602001919060010190611833565b5061185a92915061185e565b5090565b5b8082111561185a576000815560010161185f565b6001600160e01b0319811681146107a457600080fd5b60006020828403121561189b57600080fd5b81356118a681611873565b9392505050565b60005b838110156118c85781810151838201526020016118b0565b83811115610d1c5750506000910152565b600081518084526118f18160208601602086016118ad565b601f01601f19169290920160200192915050565b6020815260006118a660208301846118d9565b60006020828403121561192a57600080fd5b5035919050565b6001600160a01b03811681146107a457600080fd5b6000806040838503121561195957600080fd5b823561196481611931565b946020939093013593505050565b60008060006060848603121561198757600080fd5b833561199281611931565b925060208401356119a281611931565b929592945050506040919091013590565b6000602082840312156119c557600080fd5b81356118a681611931565b634e487b7160e01b600052604160045260246000fd5b600067ffffffffffffffff80841115611a0157611a016119d0565b604051601f8501601f19908116603f01168101908282118183101715611a2957611a296119d0565b81604052809350858152868686011115611a4257600080fd5b858560208301376000602087830101525050509392505050565b600060208284031215611a6e57600080fd5b813567ffffffffffffffff811115611a8557600080fd5b8201601f81018413611a9657600080fd5b611060848235602084016119e6565b80151581146107a457600080fd5b60008060408385031215611ac657600080fd5b8235611ad181611931565b91506020830135611ae181611aa5565b809150509250929050565b60008060008060808587031215611b0257600080fd5b8435611b0d81611931565b93506020850135611b1d81611931565b925060408501359150606085013567ffffffffffffffff811115611b4057600080fd5b8501601f81018713611b5157600080fd5b611b60878235602084016119e6565b91505092959194509250565b60008060408385031215611b7f57600080fd5b8235611b8a81611931565b91506020830135611ae181611931565b600181811c90821680611bae57607f821691505b60208210811415611bcf57634e487b7160e01b600052602260045260246000fd5b50919050565b60208082526031908201527f4552433732313a207472616e736665722063616c6c6572206973206e6f74206f6040820152701ddb995c881b9bdc88185c1c1c9bdd9959607a1b606082015260800190565b600060208284031215611c3857600080fd5b5051919050565b600060208284031215611c5157600080fd5b81516118a681611aa5565b634e487b7160e01b600052603260045260246000fd5b60008351611c848184602088016118ad565b835190830190611c988183602088016118ad565b64173539b7b760d91b9101908152600501949350505050565b634e487b7160e01b600052601160045260246000fd5b60008219821115611cda57611cda611cb1565b500190565b60208082526032908201527f4552433732313a207472616e7366657220746f206e6f6e20455243373231526560408201527131b2b4bb32b91034b6b83632b6b2b73a32b960711b606082015260800190565b6000600019821415611d4557611d45611cb1565b5060010190565b634e487b7160e01b600052601260045260246000fd5b600082611d7157611d71611d4c565b500490565b600082821015611d8857611d88611cb1565b500390565b600082611d9c57611d9c611d4c565b500690565b60006001600160a01b03808716835280861660208401525083604083015260806060830152611dd360808301846118d9565b9695505050505050565b600060208284031215611def57600080fd5b81516118a681611873565b634e487b7160e01b600052603160045260246000fdfe4f776e61626c653a2063616c6c6572206973206e6f7420746865206f776e6572a2646970667358221220cd0c0ce2629ce1b5c51fcb8c11d590b363739c0f793495dc6c803716228c7d6464736f6c63430008090033",
  "devdoc": {
    "kind": "dev",
    "methods": {
      "approve(address,uint256)": {
        "details": "See {IERC721-approve}."
      },
      "balanceOf(address)": {
        "details": "See {IERC721-balanceOf}."
      },
      "getApproved(uint256)": {
        "details": "See {IERC721-getApproved}."
      },
      "isApprovedForAll(address,address)": {
        "details": "See {IERC721-isApprovedForAll}."
      },
      "name()": {
        "details": "See {IERC721Metadata-name}."
      },
      "owner()": {
        "details": "Returns the address of the current owner."
      },
      "ownerOf(uint256)": {
        "details": "See {IERC721-ownerOf}."
      },
      "renounceOwnership()": {
        "details": "Leaves the contract without owner. It will not be possible to call `onlyOwner` functions anymore. Can only be called by the current owner. NOTE: Renouncing ownership will leave the contract without an owner, thereby removing any functionality that is only available to the owner."
      },
      "safeTransferFrom(address,address,uint256)": {
        "details": "See {IERC721-safeTransferFrom}."
      },
      "safeTransferFrom(address,address,uint256,bytes)": {
        "details": "See {IERC721-safeTransferFrom}."
      },
      "setApprovalForAll(address,bool)": {
        "details": "See {IERC721-setApprovalForAll}."
      },
      "supportsInterface(bytes4)": {
        "details": "See {IERC165-supportsInterface}."
      },
      "symbol()": {
        "details": "See {IERC721Metadata-symbol}."
      },
      "tokenByIndex(uint256)": {
        "details": "See {IERC721Enumerable-tokenByIndex}."
      },
      "tokenOfOwnerByIndex(address,uint256)": {
        "details": "See {IERC721Enumerable-tokenOfOwnerByIndex}."
      },
      "totalSupply()": {
        "details": "See {IERC721Enumerable-totalSupply}."
      },
      "transferFrom(address,address,uint256)": {
        "details": "See {IERC721-transferFrom}."
      },
      "transferOwnership(address)": {
        "details": "Transfers ownership of the contract to a new account (`newOwner`). Can only be called by the current owner."
      }
    },
    "version": 1
  },
  "userdoc": {
    "kind": "user",
    "methods": {},
    "version": 1
  },
  "storageLayout": {
    "storage": [
      {
        "astId": 211,
        "contract": "contracts/OPCNFT.sol:OPCNFT",
        "label": "_name",
        "offset": 0,
        "slot": "0",
        "type": "t_string_storage"
      },
      {
        "astId": 213,
        "contract": "contracts/OPCNFT.sol:OPCNFT",
        "label": "_symbol",
        "offset": 0,
        "slot": "1",
        "type": "t_string_storage"
      },
      {
        "astId": 217,
        "contract": "contracts/OPCNFT.sol:OPCNFT",
        "label": "_owners",
        "offset": 0,
        "slot": "2",
        "type": "t_mapping(t_uint256,t_address)"
      },
      {
        "astId": 221,
        "contract": "contracts/OPCNFT.sol:OPCNFT",
        "label": "_balances",
        "offset": 0,
        "slot": "3",
        "type": "t_mapping(t_address,t_uint256)"
      },
      {
        "astId": 225,
        "contract": "contracts/OPCNFT.sol:OPCNFT",
        "label": "_tokenApprovals",
        "offset": 0,
        "slot": "4",
        "type": "t_mapping(t_uint256,t_address)"
      },
      {
        "astId": 231,
        "contract": "contracts/OPCNFT.sol:OPCNFT",
        "label": "_operatorApprovals",
        "offset": 0,
        "slot": "5",
        "type": "t_mapping(t_address,t_mapping(t_address,t_bool))"
      },
      {
        "astId": 1200,
        "contract": "contracts/OPCNFT.sol:OPCNFT",
        "label": "_ownedTokens",
        "offset": 0,
        "slot": "6",
        "type": "t_mapping(t_address,t_mapping(t_uint256,t_uint256))"
      },
      {
        "astId": 1204,
        "contract": "contracts/OPCNFT.sol:OPCNFT",
        "label": "_ownedTokensIndex",
        "offset": 0,
        "slot": "7",
        "type": "t_mapping(t_uint256,t_uint256)"
      },
      {
        "astId": 1207,
        "contract": "contracts/OPCNFT.sol:OPCNFT",
        "label": "_allTokens",
        "offset": 0,
        "slot": "8",
        "type": "t_array(t_uint256)dyn_storage"
      },
      {
        "astId": 1211,
        "contract": "contracts/OPCNFT.sol:OPCNFT",
        "label": "_allTokensIndex",
        "offset": 0,
        "slot": "9",
        "type": "t_mapping(t_uint256,t_uint256)"
      },
      {
        "astId": 7,
        "contract": "contracts/OPCNFT.sol:OPCNFT",
        "label": "_owner",
        "offset": 0,
        "slot": "10",
        "type": "t_address"
      },
      {
        "astId": 2151,
        "contract": "contracts/OPCNFT.sol:OPCNFT",
        "label": "baseURI",
        "offset": 0,
        "slot": "11",
        "type": "t_string_storage"
      }
    ],
    "types": {
      "t_address": {
        "encoding": "inplace",
        "label": "address",
        "numberOfBytes": "20"
      },
      "t_array(t_uint256)dyn_storage": {
        "base": "t_uint256",
        "encoding": "dynamic_array",
        "label": "uint256[]",
        "numberOfBytes": "32"
      },
      "t_bool": {
        "encoding": "inplace",
        "label": "bool",
        "numberOfBytes": "1"
      },
      "t_mapping(t_address,t_bool)": {
        "encoding": "mapping",
        "key": "t_address",
        "label": "mapping(address => bool)",
        "numberOfBytes": "32",
        "value": "t_bool"
      },
      "t_mapping(t_address,t_mapping(t_address,t_bool))": {
        "encoding": "mapping",
        "key": "t_address",
        "label": "mapping(address => mapping(address => bool))",
        "numberOfBytes": "32",
        "value": "t_mapping(t_address,t_bool)"
      },
      "t_mapping(t_address,t_mapping(t_uint256,t_uint256))": {
        "encoding": "mapping",
        "key": "t_address",
        "label": "mapping(address => mapping(uint256 => uint256))",
        "numberOfBytes": "32",
        "value": "t_mapping(t_uint256,t_uint256)"
      },
      "t_mapping(t_address,t_uint256)": {
        "encoding": "mapping",
        "key": "t_address",
        "label": "mapping(address => uint256)",
        "numberOfBytes": "32",
        "value": "t_uint256"
      },
      "t_mapping(t_uint256,t_address)": {
        "encoding": "mapping",
        "key": "t_uint256",
        "label": "mapping(uint256 => address)",
        "numberOfBytes": "32",
        "value": "t_address"
      },
      "t_mapping(t_uint256,t_uint256)": {
        "encoding": "mapping",
        "key": "t_uint256",
        "label": "mapping(uint256 => uint256)",
        "numberOfBytes": "32",
        "value": "t_uint256"
      },
      "t_string_storage": {
        "encoding": "bytes",
        "label": "string",
        "numberOfBytes": "32"
      },
      "t_uint256": {
        "encoding": "inplace",
        "label": "uint256",
        "numberOfBytes": "32"
      }
    }
  }
}